:100000000C9446000C94ED0F0C941A100C946E0096
:100010000C946E000C946E000C946E000C946E00A8
:100020000C946E000C946E000C946E000C946E0098
:100030000C946E000C946E000C94C5090C946E0028
:100040000C942E0F0C946E000C94E1140C941D155E
:100050000C946E000C946E000C946E000C946E0068
:100060000C946E000C946E0005A84CCDB2D44EB921
:100070003836A9020C50B9918688083CA6AAAA2A4B
:10008000BE000000803F120FD8152C0F11241FBE98
:10009000CFEFD8E0DEBFCDBF12E0A0E0B1E0EEE6EA
:1000A000F7E302C005900D92AE35B107D9F713E022
:1000B000AEE5B2E001C01D92AC36B107E1F710E049
:1000C000CAE8D0E004C02297FE010E94A61BC638F1
:1000D000D107C9F70E9438140C9427180C9400001B
:1000E00089B18EE190E00E94780F89B14A9BACC043
:1000F0004B99B1C0A9C01092660276C0809164028B
:10010000909165020B970CF4AEC0E0916402F091FF
:100110006502EE5FFE4F8081882309F4A4C0E09160
:100120006402F0916502ED5FFE4F8081882309F43F
:100130009AC0E0916402F0916502EC5FFE4F9081FD
:100140008091660298138FC0E0916402F09165027D
:10015000E050FF4F8081882309F485C0E09164025C
:10016000F0916502EF5FFE4F808181117CC0E091CC
:100170006402F0916502E150FF4F8081882309F409
:1001800072C0E0916402F0916502E250FF4F8081FD
:10019000882309F468C0E0916402F0916502E3509D
:1001A000FF4F8081882309F45EC0E0916402F091E2
:1001B0006502E450FF4F8081882309F45CC053C07E
:1001C00080910701882309F459C080910801882390
:1001D00009F454C080910901882309F44FC080912B
:1001E0000A01882309F44AC080E288B9E0916402D8
:1001F000F0916502EA5FFE4F10820CC081E08093AF
:10020000660218B8E0916402F0916502EA5FFE4F61
:1002100081E080838CED90E00E94780F18B8809187
:10022000640290916502C19754F4809164029091A8
:10023000650201969093650280936402089510927E
:1002400065021092640208958091640290916502A3
:100250000897B9F6D3CF8091640290916502089710
:1002600009F04CCF48CF80916402909165020597C8
:1002700009F0BACFA5CF8AE090E00EC081E080936C
:100280000701809308018093090180930A018091FE
:1002900064029091650205969093650280936402D2
:1002A000A3CF8FE692E00E9447108AE792E00E9477
:1002B000471087E892E00C9447104F925F926F923C
:1002C0007F92AF92BF92CF92DF92EF92FF920F9305
:1002D0001F93CF93DF9320E030E04AEF53E40E9476
:1002E0002D1A9B01AC0160E074E284E799E40E945E
:1002F000DE1820E134E048EF54E40E94751820E055
:1003000030E048EC52E40E942D1A20E232E040E056
:1003100052E40E94DE189B01AC0160E070E088ECC2
:1003200092E40E9475182DEC3CEC4CEC5EE30E94CC
:1003300075186B017C01862F9D2DAE2DBF2D8093EE
:10034000A1029093A202A093A302B093A40220E082
:1003500030E040E05FE36C2D7D2D8E2D9F2D0E94BF
:1003600076185B018C017B2D802F912F0E944619FE
:10037000EB019B0160E177E206C0CB01B9010E946D
:10038000371BB9019C0121153105B9F7882777FD85
:100390008095982F0E9479199B01AC016A2D7B2DC5
:1003A000802F912F0E94DE180E94461970939A02A6
:1003B0006093990260E177E206C0CB01BE010E9422
:1003C000371BBE01EC012097C1F7882777FD809588
:1003D000982F0E9479199B01AC0160E070E48CE1D8
:1003E00096E40E94DE180E9446197093980260936A
:1003F000970220E030E048E452E46C2D7D2D8E2DF4
:100400009F2D0E94751820E030E040E251E40E94E8
:10041000DE18162F072FB82EA92E9801C501432FDD
:10042000522F692F782F4093A5025093A602609314
:10043000A7027093A802CBE5D0E0BE01882777FD24
:100440008095982F0E9479192BED3FE049E450E404
:100450000E942D1A20E030E044E353E40E94DE18AD
:100460000E94901A2B013C0120E030E048E752E462
:10047000D801F5016B2F702F8F2F9A2D0E947618BF
:100480006B017C0120E030E040E05FE3C301B2019A
:100490000E942D1A9B01AC01C701B6010E9476187B
:1004A0006B017C017D2D9F2D0E944619882777FDC9
:1004B0008095982F0E94791920E030E040E05FE3BA
:1004C0000E9476180E944619AB016E33710534F410
:1004D0009E0121503109CFE0D1E002C02EE031E091
:1004E0002196CE3081E0D8070CF4A7CFC0929102BC
:1004F000D0929202E0929302F0929402509396026C
:100500004093950220939F023093A002E901CA55BF
:10051000D109CC0FDD1F9EE0A92EBB24B394A21AF3
:10052000B30AAA0CBB1CBE01882777FD8095982FC3
:100530000E9479196B017C01B501882777FD8095B0
:10054000982F0E9479199B01AC01C701B6010E9446
:10055000DE186093AD027093AE028093AF02909369
:10056000B002B5019E0106C0CB01B9010E94371B44
:10057000B9019C0121153105B9F7CE010E94371B45
:100580008B0170939E0260939D02B50106C0CB0162
:10059000BE010E94371BBE01EC012097C1F7C501C7
:1005A0000E94371BEB0170939C0260939B02B80181
:1005B000882777FD8095982F0E94791920E134E0F3
:1005C00048EF54E40E942D1A6B017C01BE0188277C
:1005D00077FD8095982F0E94791921E234E04CEF45
:1005E00054E40E942D1A9B01AC01C701B6010E9480
:1005F00076186B017C01BE01600F711F882777FDA3
:100600008095982F0E9479199B01AC01C701B60112
:100610000E94DE186093A9027093AA028093AB0235
:100620009093AC02DF91CF911F910F91FF90EF90CB
:10063000DF90CF90BF90AF907F906F905F904F9082
:100640000895F89460913B0170913C0180913D01C7
:1006500090913E010E945D0114BC15BC16BC8EE356
:1006600087BD84B5826084BD85B5836085BD80917A
:100670006E00826080936E0040E855E260E070E0BA
:1006800081EC92E00E94581580E387B96FE371E036
:1006900081EC92E00E946B1260919D0270919E022B
:1006A0004AE050E081EC92E00E94611369E471E05D
:1006B00081EC92E00E946B1260919B0270919C020F
:1006C0004AE050E081EC92E00E94611362E571E043
:1006D00081EC92E00E946B124091A5025091A6021B
:1006E0006091A7027091A80222E030E081EC92E0D4
:1006F0000E9424148091390190913A01892B69F06C
:100700001AB81AB884E08BB988E08BB943E050E09E
:1007100060E770E081E00E94BD0F789408952F9209
:100720003F924F925F926F927F928F929F92AF9281
:10073000BF92CF92DF92EF92FF920F931F93CF93CE
:10074000DF93CDB7DEB727970FB6F894DEBF0FBEA5
:10075000CDBF81EC92E00E944514892B09F4AEC410
:1007600081EC92E00E947414982E80918B029091FB
:100770008C02889728F4692D87E892E00E945F1127
:100780002AE092129BC46CE571E0CE0101960E94B2
:10079000B810BE016F5F7F4F87E892E00E94B411EE
:1007A0008C01CE0101960E9447100F3F1F4F89F028
:1007B00080910F01813019F41092380103C081E05B
:1007C000809338011092660210920E016BE671E080
:1007D00024C06EE771E0CE0101960E94B810BE0100
:1007E0006F5F7F4F87E892E00E94B4118C01CE01C9
:1007F00001960E9447100F3F1F4FA1F080910F01FB
:10080000813019F48093380102C01092380110929F
:10081000660210920E016DE871E081EC92E00E9498
:100820009E1246C460EA71E0CE0101960E94B810A3
:10083000BE016F5F7F4F87E892E00E94B4118C0188
:10084000CE0101960E9447100F3F1F4F29F01092D2
:100850000F016EEA71E0E1CF60EC71E0CE0101962C
:100860000E94B810BE016F5F7F4F87E892E00E9440
:10087000B4118C01CE0101960E9447100F3F1F4F0B
:1008800031F081E080930F016EEC71E0C6CF60EE35
:1008900071E0CE0101960E94B810BE016F5F7F4FDC
:1008A00087E892E00E94B4118C01CE0101960E946B
:1008B00047100F3F1F4F09F444C080918B02909165
:1008C0008C02909386028093850260EE71E0CE01E7
:1008D00001960E94B810BE016F5F7F4F87E892E0DB
:1008E0000E94B41109969093790280937802CE0108
:1008F00001960E9447104091830250918402CA01E0
:10090000089690937702809376022091810230912D
:10091000820267E872E0CE0101960E94B811BE0122
:100920006F5F7F4F8FE692E00E94D510CE01019657
:100930000E9447106FE672E081EC92E00E948A12FA
:10094000B7C36AEE71E0CE0101960E94B810BE01F5
:100950006F5F7F4F87E892E00E94B4118C01CE0157
:1009600001960E9447100F3F1F4F09F414C2809157
:10097000B1029091B202892B09F047C18091120116
:10098000209113019091140130911101032F10E077
:10099000080F111D080F111D34E0239F000D111DBC
:1009A000112468E0969F000D111D1124309117014C
:1009B000709118016091190120911C0150911D0145
:1009C00040911E01E09116018E2F90E0830F911D42
:1009D000830F911DE4E07E9F800D911D1124F8E0AE
:1009E0006F9F800D911D1124989E5001999EB00C0F
:1009F000112430911B01832F90E0820F911D820FF3
:100A0000911D24E0529F800D911D112438E0439FD9
:100A1000800D911D1124A80EB91E20912101709105
:100A200022013091230140912601609127015091CC
:100A30002801E09120018E2F90E0820F911D820FFE
:100A4000911DE4E07E9F800D911D1124F8E03F9FF1
:100A5000800D911D1124989E6001999ED00C112447
:100A600080912501282F30E0240F311D240F311DE6
:100A700084E0689F200D311D112498E0599F200DBE
:100A8000311D1124C20ED31E90912B01A0912C0177
:100A9000F0912D0180913001E0913101709132018E
:100AA000409135016091360150913701B0912A0192
:100AB0002B2F30E0290F311D290F311D94E0A99F04
:100AC000200D311D112498E0F99F200D311D1124B6
:100AD00094E6929F7001939FF00C112490912F0146
:100AE000292F30E0280F311D280F311DF4E0EF9F32
:100AF000200D311D112488E0789F200D311D112417
:100B0000929EC001939E900D1124E80EF91E209133
:100B10003401822F90E0840F911D840F911DE4E039
:100B20006E9F800D911D1124F8E05F9F800D911D37
:100B30001124E80EF91E80910F01813019F463EF42
:100B400071E002C065EF71E081EC92E00E946B12EF
:100B50004AE050E0B80181EC92E00E94591367EF3F
:100B600071E081EC92E00E946B122AE0A216B104BF
:100B70002CF460E381EC92E00E946D124AE050E0B8
:100B8000B50181EC92E00E94591367EF71E081ECAE
:100B900092E00E946B123AE0C316D10444F44AE09A
:100BA00050E060E070E081EC92E00E9459134AE06E
:100BB00050E0B60181EC92E00E94591369EF71E0B8
:100BC00081EC92E00E946B126AE0E616F1044CF4AC
:100BD0004AE050E060E070E081EC92E00E9459133E
:100BE00004C084E6E816F10444F44AE050E060E012
:100BF00070E081EC92E00E9459134AE050E0B701A6
:100C000081EC92E00E94611353C200E010E0B5E075
:100C1000EB2EF12CC801B7010E94371B892B19F06C
:100C20000115110531F464E581EC92E00E946D122A
:100C30002BC00830110561F480910E01811103C0B1
:100C40006BEF71E01DC0813081F46DEF71E018C071
:100C50000930110551F480910F01813019F46FEFC3
:100C600071E00EC061E072E00BC0F801EA5FFE4F78
:100C70008081882319F063E072E002C066E072E0D0
:100C800081EC92E00E946B120F5F1F4F0A3011053A
:100C900009F66CE771E081EC92E00E946B120AE0C9
:100CA00010E0A5E0EA2EF12CC801B7010E94371B25
:100CB000892B31F464E581EC92E00E946D120FC043
:100CC000F801EA5FFE4F8081882319F063E072E04B
:100CD00002C066E072E081EC92E00E946B120F5F4E
:100CE0001F4F0431110501F76CE771E081EC92E0D0
:100CF0000E946B1204E110E0F5E0EF2EF12CC80128
:100D0000B7010E94371B892B31F464E581EC92E036
:100D10000E946D120FC0F801EA5FFE4F80818823A8
:100D200019F063E072E002C066E072E081EC92E0EC
:100D30000E946B120F5F1F4F0E31110501F76CE718
:100D400071E081EC92E00E946B1208E210E0E5E0B5
:100D5000EE2EF12CC801B7010E94371B892B31F40C
:100D600064E581EC92E00E946D120FC0F801EA5F29
:100D7000FE4F8081882319F063E072E002C066E0D4
:100D800072E081EC92E00E946B120F5F1F4F023302
:100D9000110501F78DC16AE072E0CE0101960E9453
:100DA000B810BE016F5F7F4F87E892E00E94B411D8
:100DB0008C01CE0101960E9447100F3F1F4F39F062
:100DC00081E090E09093B2028093B10271C162E140
:100DD00072E0CE0101960E94B810BE016F5F7F4F96
:100DE00087E892E00E94B4118C01CE0101960E9426
:100DF00047100F3F1F4F29F01092B2021092B1021C
:100E000057C16AE172E0CE0101960E94B810BE019E
:100E10006F5F7F4F87E892E00E94B4118C01CE0192
:100E200001960E9447100F3F1F4F41F081E08093D1
:100E3000660280930E016FE172E0EFCC67E272E030
:100E4000CE0101960E94B810BE016F5F7F4F87E808
:100E500092E00E94B4118C01CE0101960E944710CD
:100E60000F3F1F4FC1F014BC15BC16BC8EE387BDED
:100E700084B5826084BD85B5836085BD80916E0038
:100E8000826080936E0010923A011092390181E0E5
:100E90000E94DD0F2BC06EE272E0CE0101960E942F
:100EA000B810BE016F5F7F4F87E892E00E94B411D7
:100EB0008C01CE0101960E9447100F3F1F4FC1F0D9
:100EC000F89481E090E090933A01809339018FEF9C
:100ED00087BD1AB81AB884E08BB988E08BB943E0B3
:100EE00050E060E770E081E00E94BD0F7894E0C0C0
:100EF00064E372E0CE0101960E94B810BE016F5FFC
:100F00007F4F87E892E00E94B4118C01CE010196D8
:100F10000E9447100F3F1F4F09F4CAC081E0809321
:100F2000660280930E0180918B0290918C029093C7
:100F300086028093850264E372E0CE0101960E94EE
:100F4000B810BE016F5F7F4F87E892E00E94B41136
:100F500009969093840280938302CE0101960E94A9
:100F6000471040918302509184029A01285F3F4FBD
:100F7000309382022093810267E872E0CE010196ED
:100F80000E94B811BE016F5F7F4F8AE792E00E9416
:100F9000D510CE0101960E94471054E1A52E51E0D4
:100FA000B52E63E1C62E61E0D62E72E1E72E71E028
:100FB000F72E01E111E0812C912C77247394B40178
:100FC0008AE792E00E947211FC012081332727FDFD
:100FD0003095C901C097A9014853510942305105C4
:100FE00040F4F5017082F6011082F70110828850FA
:100FF0000DC0A901465351094230510550F4F50185
:101000001082F6017082F70170828650F8018083A9
:1010100022C0A901445351094230510540F4F50161
:101020001082F6017082F70110828450EFCF2253B4
:101030003109F5011082F6011082F70122303105E5
:1010400018F470828250E2CF1082F801019711F4F7
:10105000708201C01082FFEF8F1A9F0A25E0A20E56
:10106000B11C35E0C30ED11C65E0E60EF11C0B5F30
:101070001F4F88E08816910409F0A1CF6EE372E05B
:1010800081EC92E00E949E126AE772E081EC92E0AD
:101090000E9435126DE771E08AE792E00E94EC1041
:1010A00010928402109283021092820210928102A6
:1010B0006DE771E087E892E00E94EC108091670292
:1010C00090916802A0916902B0916A0280936B02CC
:1010D00090936C02A0936D02B0936E0290911201F6
:1010E000509113014091140180911701A0911801B2
:1010F000F091190160911C01E0911D0170911E0198
:10110000C09021018090220190902301D09026016F
:10111000A0902701B0902801E0902B0170902C0145
:1011200060902D01F09030015090310140903201DB
:10113000009135013090360120903701B0911101B6
:101140002B2F30E0290F311D290F311D94E0599FBD
:10115000200D311D112498E0499F200D311D1124CF
:1011600090911601492F50E0480F511D480F511D15
:1011700084E0A89F400D511D112498E0F99F400D77
:10118000511D11241AE0149FC001159F900D1124C8
:10119000F0911B014F2F50E0460F511D460F511D7E
:1011A000F4E0EF9F400D511D112468E0769F400D43
:1011B000511D1124840F951FECE3F0E0BF010E9444
:1011C000371B260F371F80912001482F50E04C0D10
:1011D000511D4C0D511D84E0889E400D511D112460
:1011E00098E0999E400D511D1124149FC001159F38
:1011F000900D112460912501462F50E04D0D511D99
:101200004D0D511D64E0A69E400D511D112468E056
:10121000B69E400D511D1124840F951F40E1C42E30
:101220004EE0D42EB6010E94371B260F371F809147
:101230002A01482F50E04E0D511D4E0D511D84E0E6
:10124000789E400D511D112498E0699E400D511D5E
:10125000112464E6649FC001659F900D1124609184
:101260002F01462F50E04F0D511D4F0D511D64E0D1
:10127000569E400D511D112468E0469E400D511DA3
:101280001124149FB001159F700D1124860F971F14
:1012900060913401462F50E0400F511D400F511D09
:1012A00064E0369E400D511D112468E0269E400DDD
:1012B000511D1124840F951FB6010E94371BCB01CD
:1012C000BF010E94371B260F371FB901882777FD02
:1012D0008095982F0E947919609367027093680235
:1012E0008093690290936A0260916702709168022C
:1012F0008091690290916A0220916B0230916C0298
:1013000040916D0250916E020E94751820E030E00D
:10131000A9010E94291A18161CF4109238011CC049
:1013200060916702709168028091690290916A02EF
:1013300020916B0230916C0240916D0250916E02CF
:101340000E94751820E030E0A9010E94DA1887FF9A
:1013500003C081E08093380127960FB6F894DEBF72
:101360000FBECDBFDF91CF911F910F91FF90EF90F6
:10137000DF90CF90BF90AF909F908F907F906F90B5
:101380005F904F903F902F9008951F920F920FB64D
:101390000F9211242F933F934F935F938F939F93BB
:1013A000AF93BF93EF93FF938091390190913A01EE
:1013B000892B09F028C580918F02909190020196A7
:1013C0009093900280938F0240919D0250919E02D3
:1013D0008417950714F48DE30AC020919B02309185
:1013E0009C02240F351F821793071CF48EE387BDE0
:1013F00004C01092900210928F02E0916402F0916A
:101400006502EA5FFE4F8081882309F4A4C48091BD
:10141000620290916302892B09F49BC49CC4809161
:10142000620290916302892B09F4ACC49EC480913E
:101430006402909165020196909365028093640224
:1014400004C0109265021092640280915E02909135
:101450005F02A0916002B09161020196A11DB11DD1
:1014600080935E0290935F02A0936002B09361024A
:101470000497A105B1050CF4C3C380913801811113
:10148000C6C1809166028111BBC310925E021092A8
:101490005F021092600210926102809137018823EE
:1014A00009F496C190913601911192C19091350144
:1014B00091118EC190913401992309F489C1109240
:1014C000370110923601109235011092340180914B
:1014D0003201882309F45DC190913101911159C104
:1014E00090913001911155C190912F01992309F4E8
:1014F00050C11092320110923101109230011092BD
:101500002F0180912D01882309F424C190912C0191
:10151000911120C190912B0191111CC190912A0130
:10152000992309F417C110922D0110922C011092E9
:101530002B0110922A0180912801882309F4EBC025
:10154000909127019111E7C0909126019111E3C07C
:1015500090912501992309F4DEC010922801109280
:1015600027011092260110922501809123018111FB
:10157000B9C090912201992309F4B4C0909121013E
:101580009111B0C090912001992309F4ABC0109241
:1015900023011092220110922101109220018091CA
:1015A0001E01882309F47FC090911D0191117BC019
:1015B00090911C01911177C090911B01992309F41E
:1015C00072C010921E0110921D0110921C01109207
:1015D0001B0180911901811147C090911801992335
:1015E00009F442C09091170191113EC090911601EB
:1015F0009923D1F11092190110921801109217013C
:101600001092160180911401882379F090911301B2
:1016100091110BC090911201911107C0909111018D
:10162000992319F0109214011CC09091110191118D
:1016300001C0CBC190911201911106C081E080934D
:10164000120110921101DCC2909113019111A3C3F8
:1016500081E08093130110921201F3CF81E0809317
:10166000140110921301F7CF90911601911101C04E
:10167000D2C190911701911104C081E080931701AC
:101680000FC09091180191118AC381E080931801D5
:1016900005C081E080931901109218011092170182
:1016A00010921601ADC290911B01911101C0D7C1DA
:1016B00090911C01911104C081E080931C0109C02C
:1016C00090911D0191116FC381E080931D011092D3
:1016D0001C0110921B0194C281E080931E011092A4
:1016E0001D01F5CF90912001911101C0DCC19091B5
:1016F0002101911104C081E080932101EBC19091FF
:101700002201911154C381E080932201E1C181E063
:1017100080932301DBC190912501911101C0ECC19F
:1017200090912601911104C081E08093260109C0A7
:101730009091270191113FC381E08093270110927E
:101740002601109225015CC281E08093280110924D
:101750002701F5CF90912A01911101C0F1C190911B
:101760002B01911104C081E080932B010FC0909157
:101770002C01911124C381E080932C0105C081E0EC
:1017800080932D0110922C0110922B0110922A01AE
:1017900037C290912F01911101C0F8C19091300191
:1017A000911104C081E0809330010FC0909131010C
:1017B000911109C381E08093310105C081E08093DC
:1017C0003201109231011092300110922F0118C293
:1017D00090913401911101C0FDC190913501911199
:1017E00004C081E0809335010FC0909136019111C2
:1017F000EEC281E08093360105C081E0809337011D
:10180000109236011092350110923401F9C18130E5
:1018100009F0F6C1909166029111F2C110925E0238
:1018200010925F0210926002109261029091370153
:101830009111C3C1209136012111BFC12091350101
:101840002111BBC1209134012111B7C1809337010F
:10185000109236011092350180933401809132014B
:10186000811185C190913101911181C19091300117
:1018700091117DC190912F01911179C181E08093E7
:101880003201109231011092300180932F0190911A
:101890002D01911148C120912C01211144C12091A9
:1018A0002B01211140C120912A0121113CC18093BB
:1018B0002D0110922C0110922B0180932A0180910E
:1018C000280181110AC190912701911106C19091BF
:1018D0002601911102C1909125019111FEC081E074
:1018E00080932801109227011092260180932501F0
:1018F000909123019111CAC0209122012111C6C0EB
:10190000209121012111C2C0209120012111BEC0CE
:1019100010922301809322011092210180932001D3
:1019200090911E0191118EC020911D0121118AC03C
:1019300020911C01211186C020911B01211182C020
:1019400080931E0110921D0110921C0180931B01B7
:1019500080911901811150C09091180191114CC0D2
:1019600090911701911148C090911601911144C0B6
:101970001092190181E08093180110921701809351
:10198000160190911401911113C02091130121119E
:101990000FC02091120121110BC0209111012111C2
:1019A00007C080931401109213011092120121C0FC
:1019B00080911101882311F081501BC08091120188
:1019C000882329F081508093120181E012C0809118
:1019D0001301882309F4FFC181508093130181E032
:1019E00006C091509093140181E08093130180937D
:1019F00012018093110104C190911601992321F0E5
:101A0000915090931601FCC090911701992329F0F1
:101A100091509093170181E012C090911801992381
:101A200009F4DCC191509093180181E006C0815007
:101A30008093190181E080931801809317018093AE
:101A40001601DEC080911B01882311F0815014C063
:101A500080911C01882329F0815080931C0181E032
:101A60000BC080911D01882309F4BBC18150809374
:101A70001D0181E080931C0180931B01C1C0915026
:101A800090931E0181E080931D01F4CF809120018D
:101A9000882311F0815014C080912101882329F0FE
:101AA00081508093210181E00BC080912201882325
:101AB00009F49AC181508093220181E08093210131
:101AC000809320019DC09150909323011092220198
:101AD000109221011092200193C090912501992329
:101AE00021F09150909325018BC09091260199236C
:101AF00029F091509093260181E012C09091270126
:101B0000992309F474C191509093270181E006C094
:101B100081508093280181E08093270180932601E2
:101B2000809325016DC080912A01882311F0815096
:101B300008C080912B01882339F0815080932B01BC
:101B400081E080932A015CC080912C01882309F4F4
:101B500051C1815080932C0181E006C09150909337
:101B60002D0181E080932C0180932B01EACF90918D
:101B70002F01992321F0915090932F0141C0909112
:101B80003001992329F091509093300181E012C0E7
:101B900090913101992309F430C191509093310112
:101BA00081E006C081508093320181E08093310151
:101BB0008093300180932F0123C0809134018823CA
:101BC00011F081501BC080913501882329F081508C
:101BD0008093350181E012C080913601882309F499
:101BE0000FC181508093360181E006C091509093DF
:101BF000370181E080933601809335018093340171
:101C000080913701811110C08091360181110CC083
:101C100080913501811108C080913401882341F001
:101C200090918E02911104C081E080938E02EBC0EE
:101C3000909111019111E7C0909112019111E3C0AF
:101C4000909113019111DFC0909114019111DBC0AB
:101C5000909116019111D7C0909117019111D3C0A5
:101C6000909118019111CFC0909119019111CBC0A1
:101C700090911B019111C7C090911C019111C3C09B
:101C800090911D019111BFC090911E019111BBC097
:101C9000909120019111B7C0909121019111B3C091
:101CA000909122019111AFC0909123019111ABC08D
:101CB000909125019111A7C0909126019111A3C087
:101CC0009091270191119FC09091280191119BC083
:101CD00090912A01911197C090912B01911193C07D
:101CE00090912C0191118FC090912D0191118BC079
:101CF00090912F01911187C090913001911183C073
:101D00009091310191117FC09091320191117BC06E
:101D1000811179C080918E02882309F474C01092D9
:101D20008E0280910F01813041F480913801813021
:101D300009F069C010920F0109C0811164C080913F
:101D40003801813009F05FC080930F011092380193
:101D50005AC018B819C0E0916402F0916502EA5FB8
:101D6000FE4F8081882309F45ACB18B81092630281
:101D7000109262028091640290916502C1970CF406
:101D800056CB5FCB80E288B981E090E0909363020C
:101D9000809362025ACB882309F460CC31CF882328
:101DA00009F477CC2DCF882309F496CC29CF88234A
:101DB00009F4ADCC25CF882309F4C6CC21CF8823E4
:101DC00009F4DDCC1DCF882309F4F8CC19CF882382
:101DD00009F413CD15CF911104CE12CF811127CE66
:101DE0000FCF91114CCE0CCF91116DCE09CF811137
:101DF0008FCE06CF9111B2CE03CF8111D3CE00CFBB
:101E00009111F4CEFDCEFF91EF91BF91AF919F91D3
:101E10008F915F914F913F912F910F900FBE0F9037
:101E20001F9018954AE06EE170E087E892E00E940A
:101E300006114AE068E070E08AE792E00E9406112D
:101E40004AE068E070E08FE692E00E94061180911F
:101E5000660280930E0108950C9451011F920F9217
:101E60000FB60F9211242F933F938F939F93AF93AD
:101E7000BF938091B3029091B402A091B502B0914A
:101E8000B6023091BB02232F2D5F2D3720F401962F
:101E9000A11DB11D05C0232F2A570296A11DB11DFA
:101EA0002093BB028093B3029093B402A093B50237
:101EB000B093B6028091B7029091B802A091B90296
:101EC000B091BA020196A11DB11D8093B702909303
:101ED000B802A093B902B093BA02BF91AF919F919B
:101EE0008F913F912F910F900FBE0F901F901895DB
:101EF000019739F0880F991F880F991F0297019752
:101F0000F1F70895789484B5826084BD84B58160CA
:101F100084BD85B5826085BD85B5816085BDEEE6F1
:101F2000F0E0808181608083E1E8F0E010828081D0
:101F300082608083808181608083E0E8F0E080813E
:101F400081608083E1EBF0E0808184608083E0EB5E
:101F5000F0E0808181608083EAE7F0E08081846046
:101F600080838081826080838081816080838081A2
:101F7000806880831092C10008958230E8F4E82FD1
:101F8000F0E0EE0FFF1FE454FD4F7183608381305A
:101F900041F0809169008C7F842B80936900E89ADE
:101FA000089580916900440F551F440F551F837F8A
:101FB000842B80936900E99A0895823068F4813017
:101FC00011F0E89801C0E998E82FF0E0EE0FFF1F4C
:101FD000E454FD4F1182108208951F920F920FB6A4
:101FE0000F9211242F933F934F935F936F937F939F
:101FF0008F939F93AF93BF93EF93FF938091BC0216
:102000009091BD02892B29F0E091BC02F091BD02B4
:102010000995FF91EF91BF91AF919F918F917F9122
:102020006F915F914F913F912F910F900FBE0F9045
:102030001F9018951F920F920FB60F9211242F9395
:102040003F934F935F936F937F938F939F93AF9340
:10205000BF93EF93FF938091BE029091BF02892BB3
:1020600029F0E091BE02F091BF020995FF91EF9136
:10207000BF91AF919F918F917F916F915F914F91A0
:102080003F912F910F900FBE0F901F901895FC015C
:10209000808191810C94C316CF93DF93EC018881EA
:1020A0009981009711F00E94C316198218821D822F
:1020B0001C821B821A82DF91CF9108950F931F9388
:1020C000CF93DF93EC018B016F5F7F4F8881998104
:1020D0000E945F17009731F0998388831B830A83DE
:1020E00081E001C080E0DF91CF911F910F910895B1
:1020F000CF93DF93EC0188819981892B31F08A811C
:102100009B818617970708F00CC0CE010E945E10D5
:10211000882349F08C819D81892B19F4E881F9810C
:10212000108281E001C080E0DF91CF910895EF92AD
:10213000FF920F931F93CF93DF93EC017B018A01F2
:10214000BA010E947810811104C0CE010E944C1087
:1021500007C01D830C83B701888199810E943318C1
:10216000CE01DF91CF911F910F91FF90EF900895D5
:10217000DC0111961C921E9213961C921E921297CD
:1021800015961C921E92149716961C926115710555
:1021900059F0DB010D900020E9F7AD0141505109E4
:1021A000461B570B0C9497100895CF93DF93EC01C7
:1021B000FB018617970761F06081718161157105D8
:1021C00029F0448155810E94971002C00E944C1052
:1021D000CE01DF91CF910895CF93DF93D82FC92FF0
:1021E0006115710561F0DB010D900020E9F7AD018B
:1021F00041505109461B570B0E94971002C00E9484
:102200004C108D2F9C2FDF91CF9108950F931F932A
:10221000CF93DF93CDB7DEB762970FB6F894DEBFEA
:102220000FBECDBF8C01CB01F80111821082138249
:10223000128215821482168250E0BE016F5F7F4FBA
:102240000E945418BE016F5F7F4FC8010E94EC10BE
:1022500062960FB6F894DEBF0FBECDBFDF91CF916F
:102260001F910F910895EF92FF920F931F93CF93B9
:10227000DF93EC017B010C811D816115710511F467
:1022800080E016C04115510591F0040F151FB801EB
:102290000E9478108823A1F3288139818C819D8147
:1022A000B701820F931F0E9433181D830C8381E0B6
:1022B000DF91CF911F910F91FF90EF900895CF93F1
:1022C000DF9300D0CDB7DEB769831A8241E050E0DA
:1022D000BE016F5F7F4F0E9433110F900F90DF910F
:1022E000CF910895FC01248135816217730720F492
:1022F00080819181009729F41092C00260EC72E015
:1023000002C0680F791FCB010895FC01248135813B
:102310006217730748F480819181009729F0FC01CE
:10232000E60FF71F8081089580E00895CF93DF9333
:10233000FC01848195814817590780F4C081D181BF
:10234000FB0160817181CE01840F951F0E943A18B4
:10235000009721F09C012C1B3D0B02C02FEF3FEF9B
:10236000C901DF91CF91089540E050E00C9496119F
:10237000BF92CF92DF92EF92FF920F931F93CF9372
:10238000DF936C017B01EA0189012417350720F4F2
:102390008D2FE901042F182F6DE771E0C6010E940F
:1023A000B810D70114968D919C9115978C179D07A5
:1023B000C8F08017910708F48C01D701ED91FC91CA
:1023C0001197E00FF11FB08010826D917C916C0F1E
:1023D0007D1FC6010E94EC10D701ED91FC91E00F2A
:1023E000F11FB082C601DF91CF911F910F91FF9035
:1023F000EF90DF90CF90BF900895CF92DF92EF9251
:10240000FF920F931F93CF93DF936C01EB017A013F
:10241000E60EF71E00E010E00BC06991D601ED91C9
:10242000FC910190F081E02DC6010995080F191F5C
:10243000CE15DF0591F7C801DF91CF911F910F9164
:10244000FF90EF90DF90CF900895DB010D9000207A
:10245000E9F7AD0141505109461B570BDC01ED91E5
:10246000FC910280F381E02D0994AF92BF92CF924C
:10247000DF92EF92FF920F931F93CF93DF937C0134
:102480006B0100E010E0C0E0D0E011C0D701ED9199
:10249000FC91A080B180B801C6010E948511682F0F
:1024A000C701F5010995C80FD91F0F5F1F4FD6014E
:1024B00014968D919C9115970817190738F3CE0142
:1024C000DF91CF911F910F91FF90EF90DF90CF9010
:1024D000BF90AF9008950C942512DC01ED91FC9112
:1024E0000190F081E02D09940F931F93CF93DF9318
:1024F000EC016DE00E946D128C016AE0CE010E9439
:102500006D129C01200F311FC901DF91CF911F91E6
:102510000F9108950F931F93CF93DF93EC010E94C7
:1025200035128C01CE010E9474129C01200F311FC4
:10253000C901DF91CF911F910F9108950F931F93C0
:10254000CF93DF93EC010E9425128C01CE010E94F3
:1025500074129801280F391FC901DF91CF911F9183
:102560000F9108954F925F926F927F929F92AF92D8
:10257000BF92CF92DF92EF92FF920F931F93CF9370
:10258000DF93CDB7DEB7A1970FB6F894DEBF0FBECD
:10259000CDBF5C016A017B01922E19A281E08217F6
:1025A00010F08AE0982E8E010F5D1F4F492C512CA0
:1025B000612C712CC701B601A30192010E944B1B33
:1025C0008C2D929E80191124015011098A3014F427
:1025D000805D01C0895CF801808369017A01C114C2
:1025E000D104E104F10431F7B801C5010E942512BC
:1025F000A1960FB6F894DEBF0FBECDBFDF91CF918D
:102600001F910F91FF90EF90DF90CF90BF90AF9010
:102610009F907F906F905F904F900895CF92DF9240
:10262000EF92FF920F931F93CF93DF93EC016A0118
:102630007B012115310579F4E881F9810190F08160
:10264000E02D642FDF91CF911F910F91FF90EF90BC
:10265000DF90CF9009942A30310519F477FD0EC030
:102660002AE0B701A601CE01DF91CF911F910F9112
:10267000FF90EF90DF90CF900C94B2126DE20E9429
:102680006D128C0144275527BA014C195D096E095A
:102690007F092AE0CE010E94B212080F191FC8015B
:1026A000DF91CF911F910F91FF90EF90DF90CF902E
:1026B00008959A01AB01662757FD6095762F0C941B
:1026C0000E130F931F93CF93DF93EC019A01AB018D
:1026D000662757FD6095762F0E940E138C01CE0160
:1026E0000E9474129801280F391FC901DF91CF9100
:1026F0001F910F9108957F928F929F92AF92BF92F8
:10270000CF92DF92EF92FF920F931F93CF93DF93BD
:102710008C014A015B01F22E20E030E0A901C501E5
:10272000B4010E94DA1887FF0AC06DE2C8010E9456
:102730006D12EC01B7FAB094B7F8B09402C0C0E0E3
:10274000D0E0E12C60E070E080E09FE307C020E093
:1027500030E040E251E40E94DE18E394EF10F7CF3E
:10276000262F372F482F592FC501B4010E94761804
:10277000762E872E982EA92E0E944B19B62EC72E84
:10278000D82EE92E0E9477199B01AC01672D782D78
:10279000892D9A2D0E947518A62E972E882E792E97
:1027A0002AE04B2D5C2D6D2D7E2DC8010E94B212AA
:1027B000C80FD91FFF20B9F169EF71E0C8010E946D
:1027C0002512C80FD91F2FC020E030E040E251E4AD
:1027D0006A2D792D882D972D0E942D1A762EC72EC1
:1027E000D82EE92E0E9446194B01AA2497FCA094EA
:1027F000BA2C2AE030E0B501A401C8010E940E13F2
:10280000C80FD91FC501B4010E9479199B01AC0101
:10281000672D7C2D8D2D9E2D0E947518A62E972E2E
:10282000882E792EFA94F110CFCFCE01DF91CF917F
:102830001F910F91FF90EF90DF90CF90BF90AF90DE
:102840009F908F907F9008950F931F93CF93DF9366
:10285000EC010E947B138C01CE010E94741298013E
:10286000280F391FC901DF91CF911F910F91089552
:102870000E94820F0E942103C4E1D5E10E948F03D0
:102880002097E1F30E941415F9CFFC01848595850A
:10289000FC01E05CFF4F20813181FC01EE5BFF4FCA
:1028A00080819181281B390B2F733327C90108952B
:1028B000FC0184859585FC01E05CFF4F40815181DE
:1028C000FC01EE5BFF4F208131814217530741F03D
:1028D0000190F081E02DE80FF91F208130E002C067
:1028E0002FEF3FEFC9010895FC0184859585FC0118
:1028F000E05CFF4F40815181FC01EE5BFF4F208186
:1029000031814217530781F0A081B181A80FB91F0F
:102910008C91208131812F5F3F4F2F73332731837B
:102920002083282F30E002C02FEF3FEFC901089528
:10293000FC0186859785FC01E05CFF4FDC01AE5B06
:10294000BF4F408151812D913C9111974217530700
:10295000C1F70895CF93DF93FC0186859785DC014D
:10296000A05CBF4F2D913C9111972F5F3F4F2F736C
:102970003327EC01CE5BDF4F48815981241735079F
:10298000D9F30D90BC91A02DA80FB91F6C93A6850B
:10299000B785A05CBF4F11963C932E93A689B7894B
:1029A0002C9181E090E0058C02C0880F991F0A9459
:1029B000E2F7282B2C9381E090E0DF91CF910895EE
:1029C00008951F920F920FB60F9211242F933F93E9
:1029D0004F938F939F93EF93FF934091C600809105
:1029E00064039091650301968F7399272091660384
:1029F000309167038217930759F0E0916403F091D7
:102A00006503EC5DFC4F4083909365038093640302
:102A1000FF91EF919F918F914F913F912F910F9047
:102A20000FBE0F901F90189581EC92E00E94451404
:102A3000892B11F00C94E01408951F920F920FB699
:102A40000F9211242F933F938F939F93EF93FF93B4
:102A50002091200330912103809122039091230340
:102A60002817390731F48091C1008F7D8093C10010
:102A700014C0E0912203F0912303E052FD4F208126
:102A8000809122039091230301968F73992790934D
:102A90002303809322032093C600FF91EF919F911F
:102AA0008F913F912F910F900FBE0F901F9018950F
:102AB000CF92DF92EF92FF92CF93DF93EC016A0106
:102AC0007B01411581EE580761057105F9F0EC892C
:102AD000FD8981E090E00E8C02C0880F991F0A9456
:102AE000E2F7808360E079E08DE390E0A701960152
:102AF0000E944B1B215031094109510956954795B8
:102B000037952795211580E1380798F0EC89FD89E4
:102B1000108260E874E88EE190E0A70196010E94BF
:102B20004B1B21503109410951095695479537955D
:102B30002795E889F9893083EA89FB892083EE8922
:102B4000FF89408181E090E09C010A8C02C0220F45
:102B5000331F0A94E2F7422B4083EE89FF894081BC
:102B60009C010B8C02C0220F331F0A94E2F7422B08
:102B70004083EE89FF8940819C010C8C02C0220FAA
:102B8000331F0A94E2F7422B4083EE89FF892081AC
:102B90000D8C02C0880F991F0A94E2F7809582235A
:102BA0008083DF91CF91FF90EF90DF90CF900895D9
:102BB0001092C4021092C30288EE93E0A0E0B0E04D
:102BC0008093C5029093C602A093C702B093C80237
:102BD00081E592E09093C2028093C10284E293E087
:102BE0009093CE028093CD0280EE92E09093D0023B
:102BF0008093CF0285EC90E09093D2028093D10233
:102C000084EC90E09093D4028093D30280EC90E027
:102C10009093D6028093D50281EC90E09093D802F5
:102C20008093D70286EC90E09093DA028093D902E9
:102C300084E08093DB0283E08093DC0287E0809372
:102C4000DD0285E08093DE0281E08093DF0208955B
:102C50000F931F93CF93DF938230910510F482E09E
:102C600090E0E0916A03F0916B0320E030E0C0E077
:102C7000D0E023C04081518148175907A8F0481778
:102C8000590761F482819381209719F09B838A838D
:102C90002EC090936B0380936A0329C021153105E0
:102CA00029F04217530710F0A90102C0BE01DF014D
:102CB00002811381EF019A01F8013097D9F62115AD
:102CC000310509F1281B390B2430310590F4129697
:102CD0008D919C9113976115710521F0FB019383F0
:102CE000828304C090936B0380936A03FD01329644
:102CF00044C0FD01E20FF31F8193919322503109EB
:102D00002D933C933AC02091680330916903232BA3
:102D100041F4209102013091030130936903209323
:102D2000680320910001309101012115310541F422
:102D30002DB73EB74091040150910501241B350B7E
:102D4000E0916803F0916903E217F307A0F42E1BEA
:102D50003F0B2817390778F0AC014E5F5F4F2417FF
:102D6000350748F04E0F5F1F509369034093680387
:102D70008193919302C0E0E0F0E0CF01DF91CF9129
:102D80001F910F910895EF92FF920F931F93CF938E
:102D9000DF93009709F48EC0DC01129713961C9202
:102DA0001E921297E0906A03F0906B03E114F10415
:102DB00089F42D913C911197280F391F8091680358
:102DC000909169038217930789F5B0936903A093E3
:102DD000680370C0E70120E030E001C0EA01CA17D3
:102DE000DB0738F44A815B819E0141155105B1F73B
:102DF00022C0AC0142505109FA01D383C283008141
:102E00001181BC01600F711F6C177D0761F468812F
:102E10007981600F711F6E5F7F4F718360836A815C
:102E20007B81738362832115310529F4B0936B0391
:102E3000A0936A033FC0F901B383A283E9014991DA
:102E40005991C40FD51FAC17BD0771F4DC019E91D9
:102E50008E91840F951F02969183808312968D9197
:102E60009C91139793838283A0E0B0E002C0D701C6
:102E70007C01F701828193810097C9F7C70102960F
:102E800020813181820F931F209168033091690363
:102E90002817390779F4109729F410926B031092D0
:102EA0006A0304C013961C921E921297F092690353
:102EB000E0926803CDB7DEB7E6E00C94951BA0E086
:102EC000B0E0E5E6F7E10C94731BEC01009729F400
:102ED000CB010E942816EC01B4C0DC01A60FB71F7D
:102EE000FC013297AE17BF0718F4C0E0D0E0A9C0CC
:102EF0000081118106171707B0F00530110508F49D
:102F0000A0C0C80104978617970708F49AC002501A
:102F10001109061B170B0D931D9371836083CD015F
:102F20000E94C3168EC06B01C01AD10A7C01E00E4C
:102F3000F11EE0916A03F0916B0320E030E080E045
:102F400090E048C0EE15FF05D1F5808091805401D6
:102F500042E0A40EB11CAC14BD0488F17401EC185D
:102F6000FD08670122E0C20ED11C9E0122503109EA
:102F700045E0C416D10478F04281538113965C93E6
:102F80004E9312971196FC92EE92F9017183608331
:102F90003A2F2B2F09C00E5F1F4F080D191DD901A5
:102FA0000D931C9332812381009721F0FC01328321
:102FB000238347C030936A0320936B0342C0808110
:102FC00091812817390708F49C0152814381CF0170
:102FD000E52FF42F309709F0B5CF809168039091D9
:102FE00069038E159F05F1F426173707D8F48091F1
:102FF000000190910101009741F48DB79EB7209197
:10300000040130910501821B930BA817B90708F042
:103010006CCFB0936903A0936803FE01329771836C
:1030200060830FC0CB010E9428167C01009709F431
:103030005CCFA801BE010E942A18CE010E94C316CF
:10304000E701CE01CDB7DEB7ECE00C948F1BF8940E
:103050000C94AA1BFB01DC0102C001900D924150AF
:103060005040D8F70895FB01DC0101900D9200203B
:10307000E1F70895FB0151915523A9F0BF01DC014F
:103080004D9145174111E1F759F4CD010190002010
:1030900049F04D9140154111C9F3FB014111EFCFAA
:1030A00081E090E001970895FB019F01E894423090
:1030B000C4F04532B4F44A3029F497FB1EF49095DD
:1030C00081959F4F642F77270E94231B805D8A3351
:1030D0000CF0895D8193CB010097A1F716F45DE2B6
:1030E00051931082C9010C94961A5058BB27AA27F5
:1030F0000ED075C166D130F06BD120F031F49F3F16
:1031000011F41EF45BC10EF4E095E7FB51C1E92F09
:1031100077D180F3BA17620773078407950718F011
:1031200071F49EF58FC10EF4E0950B2EBA2FA02DF1
:103130000B01B90190010C01CA01A0011124FF2764
:10314000591B99F0593F50F4503E68F11A16F0405F
:10315000A22F232F342F4427585FF3CF469537955E
:103160002795A795F0405395C9F77EF41F16BA0B23
:10317000620B730B840BBAF09150A1F0FF0FBB1FD1
:10318000661F771F881FC2F70EC0BA0F621F731F1A
:10319000841F48F4879577956795B795F7959E3F77
:1031A00008F0B3CF9395880F08F09927EE0F979505
:1031B00087950895D9D008F481E008950CD00FC107
:1031C00007D140F0FED030F021F45F3F19F0F0C09D
:1031D000511139C1F3C014D198F39923C9F3552380
:1031E000B1F3951B550BBB27AA27621773078407FA
:1031F00038F09F5F5F4F220F331F441FAA1FA9F3B0
:1032000033D00E2E3AF0E0E830D091505040E695A1
:10321000001CCAF729D0FE2F27D0660F771F881F02
:10322000BB1F261737074807AB07B0E809F0BB0BF1
:10323000802DBF01FF2793585F4F2AF09E3F510515
:1032400068F0B6C000C15F3FECF3983EDCF38695B2
:1032500077956795B795F7959F5FC9F7880F911D8B
:103260009695879597F90895E1E0660F771F881F77
:10327000BB1F621773078407BA0720F0621B730B2A
:10328000840BBA0BEE1F88F7E095089504D068947C
:10329000B111D9C00895BCD088F09F5790F0B92FD4
:1032A0009927B751A0F0D1F0660F771F881F991F9B
:1032B0001AF0BA95C9F712C0B13081F0C3D0B1E0AD
:1032C0000895C0C0672F782F8827B85F39F0B93FBD
:1032D000CCF3869577956795B395D9F73EF490959D
:1032E0008095709561957F4F8F4F9F4F0895E8941B
:1032F00009C097FB3EF490958095709561957F4F3E
:103300008F4F9F4F9923A9F0F92F96E9BB279395EB
:10331000F695879577956795B795F111F8CFFAF4FB
:10332000BB0F11F460FF1BC06F5F7F4F8F4F9F4F2C
:1033300016C0882311F096E911C0772321F09EE88A
:10334000872F762F05C0662371F096E8862F70E0F0
:1033500060E02AF09A95660F771F881FDAF7880FCA
:103360009695879597F90895990F0008550FAA0B20
:10337000E0E8FEEF16161706E807F907C0F0121688
:103380001306E407F50798F0621B730B840B950B8B
:1033900039F40A2661F0232B242B252B21F40895E0
:1033A0000A2609F4A140A6958FEF811D811D08957D
:1033B00097F99F6780E870E060E008959FEF80ECE8
:1033C000089500240A94161617061806090608958B
:1033D00000240A9412161306140605060895092EF1
:1033E0000394000C11F4882352F0BB0F40F4BF2B60
:1033F00011F460FF04C06F5F7F4F8F4F9F4F0895A0
:1034000057FD9058440F551F59F05F3F71F0479595
:10341000880F97FB991F61F09F3F79F0879508957A
:10342000121613061406551FF2CF4695F1DF08C099
:10343000161617061806991FF1CF869571056105B6
:1034400008940895E894BB2766277727CB0197F95E
:1034500008958ADF08F48FEF08950BD0C0CFB1DF55
:1034600028F0B6DF18F0952309F0A2CFA7CF1124DA
:10347000EACFC6DFA0F3959FD1F3950F50E0551F1B
:10348000629FF001729FBB27F00DB11D639FAA27B9
:10349000F00DB11DAA1F649F6627B00DA11D661F08
:1034A000829F2227B00DA11D621F739FB00DA11D29
:1034B000621F839FA00D611D221F749F3327A00DE3
:1034C000611D231F849F600D211D822F762F6A2F7F
:1034D00011249F5750408AF0E1F088234AF0EE0F04
:1034E000FF1FBB1F661F771F881F91505040A9F711
:1034F0009E3F510570F05CCFA6CF5F3FECF3983E46
:10350000DCF3869577956795B795F795E7959F5F77
:10351000C1F7FE2B880F911D9695879597F9089511
:103520009F9315D00F9007FCEE5F38C0DC01FC01C3
:10353000672F71917723E1F7329704C07C916D93E7
:1035400070836291AE17BF07C8F3089537CF60DF6D
:10355000E8F3E894E0E0BB279F57F0F02AED3FE066
:1035600049EC06C0EE0FBB0F661F771F881F28F0BF
:10357000B23A62077307840728F0B25A620B730BE2
:10358000840BE3959A9572F7803830F49A95BB0FC7
:10359000661F771F881FD2F7904813C0EF93E0FF94
:1035A00006C0A2EA2AED3FE049EC5FEBB0DD17DF91
:1035B0000F90039401FC9058E8E6F0E00EC09F3FA6
:1035C00031F0915020F4879577956795B795880FDE
:1035D000911D9695879597F908959F938F937F9363
:1035E0006F93FF93EF939B01AC0137DFEF91FF9156
:1035F00005D02F913F914F915F912FCFDF93CF93C4
:103600001F930F93FF92EF92DF927B018C016894DE
:1036100005C0DA2EEF012DDFFE01E894A59125917A
:10362000359145915591AEF3EF0171DDFE019701A2
:10363000A801DA9479F7DF90EF90FF900F911F9136
:10364000CF91DF910895AA1BBB1B51E107C0AA1FB0
:10365000BB1FA617B70710F0A61BB70B881F991F33
:103660005A95A9F780959095BC01CD01089597FBD7
:10367000072E16F4009407D077FD09D00E94231B73
:1036800007FC05D03EF4909581959F4F0895709565
:1036900061957F4F0895A1E21A2EAA1BBB1BFD0165
:1036A0000DC0AA1FBB1FEE1FFF1FA217B307E40721
:1036B000F50720F0A21BB30BE40BF50B661F771F79
:1036C000881F991F1A9469F7609570958095909559
:1036D0009B01AC01BD01CF0108952F923F924F9203
:1036E0005F926F927F928F929F92AF92BF92CF9292
:1036F000DF92EF92FF920F931F93CF93DF93CDB79B
:10370000DEB7CA1BDB0B0FB6F894DEBF0FBECDBF12
:1037100009942A88398848885F846E847D848C84E3
:103720009B84AA84B984C884DF80EE80FD800C81EC
:103730001B81AA81B981CE0FD11D0FB6F894DEBFCF
:103740000FBECDBFED010895EE0FFF1F0590F49160
:10375000E02D099410E0CAE8D0E004C0FE010E9408
:0E376000A61B2296CC38D107C9F7F894FFCFEC
:10376E0000006C03200000010101010001010000B6
:10377E00000000000000000000000000000000003B
:10378E00000000000000000000000000000000002B
:10379E000000000000000000010100C703803F6E22
:1037AE00756D646572203D200064656E6F6D203D01
:1037BE0020006F6666736574203D2000636F756E22
:1037CE00745F6E6567617469766500436F756E74BC
:1037DE00696E67204E656761746976650A00636F6E
:1037EE00756E745F706F73697469766500436F757B
:1037FE006E74696E6720506F7369746976650A001E
:10380E007369676E5F706F7369746976650054696A
:10381E006D6520697320506F7369746976650A004F
:10382E007369676E5F6E656761746976650054696A
:10383E006D65206973204E656761746976650A004F
:10384E0063616C5F666163745F006765745F746962
:10385E006D65002D002B003A002E00430048004EEF
:10386E000050005F20002D2D2000544D5F426974E2
:10387E007300544D5F54696D6500686F6C64004849
:10388E006F6C64696E67004D617374657200536C82
:10389E00617665007365745F74696D655F00746948
:1038AE006D652069732073657420746F00000000CD
:0E38BE0000AA14FD1145147414581498140037
:00000001FF
